:020000040000FA
:1000000028288F018E00FF308E07031C8F07031CEA
:10001000232803308D00DF300F2003288D01E83EB8
:100020008C008D09FC30031C18288C070318152838
:100030008C0764008D0F15280C181E288C1C222894
:1000400000002228080083130313831264000800B1
:10005000831685018601831285140515A4016400A9
:100060000A302402031852285320851026088600DF
:10007000643001208514A50164000A3025020318AC
:1000800050288510260886006430012085146B20D6
:10009000051127088600643001200515A50F3C28AE
:1000A000A40F2F282E282408093C031C6B285A2053
:1000B000A6006B2800308A002408613E03188A0AD3
:1000C00082003F3406345B344F3466346D347D3403
:1000D00007347F346F342508093C031C83287220C1
:1000E000A700832800308A002508793E03188A0A71
:1000F00082003F3406345B344F3466346D347D34D3
:0C01000007347F346F340800630084284B
:02400E00FD3F74
:00000001FF
